S010000050726F6A656374322E737265630B
S11300000C942A000C94BA010C9447000C944700F9
S11300100C9447000C9447000C9447000C94470040
S11300200C9447000C9447000C9447000C94470030
S11300300C9447000C9447000C9447000C94470020
S11300400C9447000C9447000C9447000C94470010
S11300500C94470011241FBECFE5D8E0DEBFCDBF0E
S113006010E0A0E6B0E0E0EDFAE002C005900D92E9
S1130070A236B107D9F720E0A2E6B0E001C01D9294
S1130080A336B207E1F70E94D6010C9466050C94DE
S1130090000060E081E40E94CA0161E081E40E9402
S11300A0CA0162E081E40E94CA0160E082E40E9425
S11300B0CA0161E082E40E94CA0162E082E40E9413
S11300C0CA0162E084E40E94C6010E94C7027894D7
S11300D085B7836085BF8BB780648BBF0895CF934A
S11300E080916100811107C090916200992319F0F9
S11300F0913009F0E1C0811103C081E08093620076
S113010060E082E40E94D20161E082E40E94D201B4
S113011062E082E40E94D20180916200813021F188
S113012020F0823009F4A1C0C0C060E081E40E94E4
S1130130CE0162E081E40E94D20161E081E40E9488
S1130140D201C0E009C084E490E00E94C902809119
S11301506100882319F0CF5FC233A8F381E0809354
S113016062001092600004C18091610081115EC040
S113017080916000823069F162E082E40E94CE01E5
S1130180C0E025C061E081E40E94CE0161E082E428
S11301900E94CE0186E891E00E94C90261E081E4F8
S11301A00E94D20161E082E40E94D2018EEB90E0D1
S11301B00E94C90261E081E40E94CE0161E082E410
S11301C00E94CE0186E891E00E94C902CF5FC5304B
S11301D0C8F281E08093600082E08093620062E074
S11301E081E40E94CE0125C061E081E40E94CE0139
S11301F08CE791E00E94C90261E081E40E94D2018F
S113020084EB90E00E94C90261E081E40E94CE0187
S11302108CE791E00E94C90280916100811104C0C1
S113022081E08093600005C0CF5F01C0C0E0C530AD
S1130230D8F261E081E40E94D20161E082E40E948C
S1130240D20180916000811107C082E08093620036
S113025081E0809360008CC0823009F089C01092E4
S1130260620081E08093600083C060E081E40E94CA
S1130270D20161E081E40E94D20162E081E40E9443
S1130280CE01C0E009C084E490E00E94C9028091DC
S11302906100882319F0CF5FC233A8F382E0809312
S11302A0600081E08093620063C082E0809362001A
S11302B081E0809360005CC060E082E40E94CE0133
S11302C061E082E40E94D20162E082E40E94D201F1
S11302D060E081E40E94D20161E081E40E94D201E5
S11302E062E081E40E94CE0188E893E10E94C902A1
S11302F062E081E40E94D201C0E025C061E081E4B3
S11303000E94CE0161E082E40E94CE0186E891E081
S11303100E94C90261E081E40E94D20161E082E4AA
S11303200E94D2018EEB90E00E94C90261E081E458
S11303300E94CE0161E082E40E94CE0186E891E051
S11303400E94C902CF5FC530C8F261E081E40E9417
S1130350D20161E082E40E94D20162E082E40E9460
S1130360CE0181E08093610010926200809360006E
S1130370CF9108951F920F920FB60F9211241092ED
S113038061000F900FBE0F901F90189541E00E94DE
S1130390DB01089541E00E94DB01089541E00E94E1
S11303A05102089540E00E94510208950E944900BC
S11303B00E946F00FDCF41113BC08234A9F018F4B4
S11303C0813431F008958334D9F0843429F10895C7
S11303D02AB381E090E002C0880F991F6A95E2F782
S11303E0809582238ABB089527B381E090E002C000
S11303F0880F991F6A95E2F78095822387BB089539
S113040024B381E090E002C0880F991F6A95E2F757
S11304108095822384BB089521B381E090E002C0DB
S1130420880F991F6A95E2F78095822381BB08950E
S11304308130B1F58234A1F018F4813431F008959B
S11304408334C9F0843411F108952AB381E090E033
S113045002C0880F991F6A95E2F7822B8ABB089520
S113046027B381E090E002C0880F991F6A95E2F7F4
S1130470822B87BB089524B381E090E002C0880FEB
S1130480991F6A95E2F7822B84BB089521B381E01A
S113049090E002C0880F991F6A95E2F7822B81BB16
S11304A0089541113BC08234A9F018F4813431F02D
S11304B008958334D9F0843429F108952BB381E06D
S11304C090E002C0880F991F6A95E2F78095822315
S11304D08BBB089528B381E090E002C0880F991F78
S11304E06A95E2F78095822388BB089525B381E05D
S11304F090E002C0880F991F6A95E2F780958223E5
S113050085BB089522B381E090E002C0880F991F53
S11305106A95E2F78095822382BB08954130B1F554
S11305208234A1F018F4813431F008958334C9F091
S1130530843411F108952BB381E090E002C0880F58
S1130540991F6A95E2F7822B8BBB089528B381E04B
S113055090E002C0880F991F6A95E2F7822B88BB4E
S1130560089525B381E090E002C0880F991F6A9531
S1130570E2F7822B85BB089522B381E090E002C0AC
S1130580880F991F6A95E2F7822B82BB089513BEE8
S113059008958F929F92AF92BF92CF92DF92EF9283
S11305A0FF92CF93DF93EC01BC0180E090E00E94C6
S11305B073046B017C012FE632E143E852E40E94AC
S11305C0CD0388239CF4A70196016FE672E183E8CA
S11305D092E40E9449032FE632E143E85EE30E947D
S11305E0D2030E944404C1E0D0E035C0C134D10537
S11305F079F12FE632E143E852E4C701B6010E94E3
S1130600D2030E94B6030E9444044B015C01EB0137
S11306102FE632E143E85EE3C701B6010E94D2034C
S11306206B017C01B40180E090E00E9473049B01A3
S1130630AC01C701B6010E94D2039B01AC0160E08A
S113064070E080E893E40E9449030E94440403C0DC
S113065060E0C1E0D0E062BF83B7846083BF20E084
S113066030E008C008B600FEFDCF88B7816088BFBF
S11306702F5F3F4F2C173D07A8F313BEDF91CF9197
S1130680FF90EF90DF90CF90BF90AF909F908F90AE
S113069008955058BB27AA270E9461030C9414059F
S11306A00E94060538F00E940D0520F039F49F3FA2
S11306B019F426F40C9403050EF4E095E7FB0C946E
S11306C0D404E92F0E94250558F3BA17620773076B
S11306D08407950720F079F4A6F50C945F050EF4D1
S11306E0E0950B2EBA2FA02D0B01B90190010C013E
S11306F0CA01A0011124FF27591B99F0593F50F456
S1130700503E68F11A16F040A22F232F342F4427AD
S1130710585FF3CF469537952795A795F0405395A5
S1130720C9F77EF41F16BA0B620B730B840BBAF075
S11307309150A1F0FF0FBB1F661F771F881FC2F7E0
S11307400EC0BA0F621F731F841F48F487957795F4
S11307506795B795F7959E3F08F0B0CF9395880FAE
S113076008F09927EE0F9795879508950E944705FD
S113077090F09F3748F4911116F40C94600560E0F2
S113078070E080E89FE3089526F01B16611D711D3B
S1130790811D0C94DA040C94F5040E94B00408F44E
S11307A081E008950E94E6030C9414050E940D054F
S11307B058F00E94060540F029F45F3F29F00C949C
S11307C0D40451110C9460050C9403050E94250572
S11307D068F39923B1F3552391F3951B550BBB276C
S11307E0AA2762177307840738F09F5F5F4F220FB1
S11307F0331F441FAA1FA9F335D00E2E3AF0E0E8A8
S113080032D091505040E695001CCAF72BD0FE2FF1
S113081029D0660F771F881FBB1F26173707480785
S1130820AB07B0E809F0BB0B802DBF01FF2793583D
S11308305F4F3AF09E3F510578F00C94D4040C9429
S113084060055F3FE4F3983ED4F38695779567950A
S1130850B795F7959F5FC9F7880F911D9695879572
S113086097F90895E1E0660F771F881FBB1F621791
S113087073078407BA0720F0621B730B840BBA0B4F
S1130880EE1F88F7E09508950E942D0588F09F5784
S113089098F0B92F9927B751B0F0E1F0660F771FA0
S11308A0881F991F1AF0BA95C9F714C0B13091F096
S11308B00E945F05B1E008950C945F05672F782FBF
S11308C08827B85F39F0B93FCCF38695779567955B
S11308D0B395D9F73EF490958095709561957F4FC7
S11308E08F4F9F4F0895E89409C097FB3EF490956D
S11308F08095709561957F4F8F4F9F4F9923A9F0F5
S1130900F92F96E9BB279395F69587957795679583
S1130910B795F111F8CFFAF4BB0F11F460FF1BC0C7
S11309206F5F7F4F8F4F9F4F16C0882311F096E95A
S113093011C0772321F09EE8872F762F05C0662308
S113094071F096E8862F70E060E02AF09A95660FC1
S1130950771F881FDAF7880F9695879597F908957A
S1130960990F0008550FAA0BE0E8FEEF16161706BC
S1130970E807F907C0F012161306E407F50798F024
S1130980621B730B840B950B39F40A2661F0232B3D
S1130990242B252B21F408950A2609F4A140A695B9
S11309A08FEF811D811D089597F99F6780E870E09E
S11309B060E00895882371F4772321F09850872B01
S11309C0762F07C0662311F499270DC09051862B0A
S11309D070E060E02AF09A95660F771F881FDAF7B7
S11309E0880F9695879597F908959F3F31F0915018
S11309F020F4879577956795B795880F911D9695FF
S1130A00879597F908959FEF80EC089500240A9440
S1130A101616170618060906089500240A941216D5
S1130A201306140605060895092E0394000C11F408
S1130A30882352F0BB0F40F4BF2B11F460FF04C0B5
S1130A406F5F7F4F8F4F9F4F089557FD9058440F0E
S1130A50551F59F05F3F71F04795880F97FB991F19
S1130A6061F09F3F79F087950895121613061406D6
S1130A70551FF2CF4695F1DF08C016161706180663
S1130A80991FF1CF869571056105089408950E9418
S1130A902D05A0F0BEE7B91788F4BB279F3860F492
S1130AA01616B11D672F782F8827985FF7CF869584
S1130AB077956795B11D93959639C8F30895E89491
S1130AC0BB2766277727CB0197F90895F894FFCFC2
S1050AD001011E
S9030000FC
